:020000040800F2
:10000000D84A0020A10100080F2D0008E92A0008A5
:100010000D2D000839090008DD330008000000003C
:10002000000000000000000000000000132D000888
:10003000C509000800000000112D0008152D00085A
:10004000BB010008BB010008BB010008BB010008A0
:10005000BB010008BB010008BB010008BB01000890
:10006000BB010008BB010008BB010008BB01000880
:10007000BB010008BB010008BB010008BB01000870
:10008000BB010008BB010008BB010008BB01000860
:10009000BB010008BB010008BB010008BB01000850
:1000A000BB010008BB010008BB010008BB01000840
:1000B000BD2D0008BB010008BB010008BB01000802
:1000C000BB010008BB010008BB010008BB01000820
:1000D000BB010008D1330008BB010008BB010008C8
:1000E000BB010008BB010008BB010008BB01000800
:1000F000BB010008BB010008BB010008BB010008F0
:10010000BB010008BB010008BB010008BB010008DF
:10011000BB010008BB010008BB010008BB010008CF
:10012000BB010008BB010008BB010008BB010008BF
:10013000BB010008BB010008BB010008BB010008AF
:10014000BB010008BB010008BB010008BB0100089F
:10015000BB010008BB0100083D090008BB01000805
:10016000BB010008BB010008BB010008BB0100087F
:10017000BB010008BB010008BB0100080000000033
:10018000BB010008BB010008DFF810D000F02EFB17
:100190000048004765530008AFF30080D84A0020AC
:1001A0000648804706480047FEE7FEE7FEE7FEE711
:1001B000FEE7FEE7FEE7FEE7FEE7FEE7AD2D0008FF
:1001C000890100082DE9F05F0546002092469B4614
:1001D00088460646814640241BE02846414647465D
:1001E000224600F045FA53465A46C01A914110D3B0
:1001F00011461846224600F016F82D1A67EB010842
:100200004F4622460120002100F00DF817EB0009AF
:100210004E41201EA4F10104DFDC484631462A4647
:100220004346BDE8F09F202A04DB203A00FA02F1A1
:10023000002070479140C2F1200320FA03F31943D4
:1002400090407047202A06DBCB17203A41FA02F093
:1002500043EAE07306E041FA02F3D040C2F1200223
:100260009140084319467047D2B201E000F8012BD3
:10027000491EFBD270470022F6E710B513460A4626
:1002800004461946FFF7F0FF204610BD2DE9FE4F4A
:10029000804681EA0300C00F0C46009021F0004127
:1002A00023F00045B8EB0200A94105D240462146A3
:1002B00090461C460B46024623F00040104347D0B0
:1002C000270DC7F30A00C3F30A510290401A0190A8
:1002D00040286BDAC3F3130040F4801B0098924669
:1002E00020B10023D2EB030A63EB0B0B01985946B4
:1002F000C0F140025046FFF796FF06460D465046B5
:100300005946019AFFF79EFF10EB08006141002457
:1003100087EA115284EAE7731A4340D0009A62B325
:10032000019A012A4FEA075215DC001B61EB02011A
:100330004FF0004202EA0752CDE90042001C41F5AD
:10034000801132462B4600F0E9F903B0BDE8F08F8A
:1003500040462146F9E7001B61EB0201001C41F514
:10036000801300185B412018A2F5001747EB03012A
:1003700040EAD570B6196D4111E06D084FEA3606B6
:1003800045EAC0754FEA0752001B61EB0201001CF1
:1003900041F5801149084FEA3000001951413246B9
:1003A0002B4603B0BDE8F04F00F0A9B90098012238
:1003B00040000023D0EB020263EBE073009821467B
:1003C0004FEAE074B8EB000061EB0401E9E783F069
:1003D00000435BE781F0004158E72DE9FE4F81EAD9
:1003E000030404F0004421F0004100944FF0000B9E
:1003F00023F0004350EA01045ED052EA03045BD0CC
:10040000C3F30A54C1F30A552C44A4F2F334019403
:10041000A0FB0254C1F3130141F48011C3F3130391
:1004200043F4801301FB024400FB034E840A970A45
:1004300044EA815447EA8357A4FB076802958D0A72
:1004400005FB07854FEA932C04FB0C542705029DFE
:100450004FEA065847EA1637B5EB08056EEB070C6E
:10046000870E920E47EA811742EA8312A7FB020128
:10047000B6EB0B0164EB00042B0D43EA0C335E1862
:1004800044EB1C50DA465146E7FB0201C5F3130466
:100490004FEA0B3343EA14534FEA0432019C43EA18
:1004A0000603A4F10C040294009CCDE900B400F012
:1004B00035F903B0BDE8F08F00200146F9E72DE9DA
:1004C000F04D81EA030404F0004B21F0004514468E
:1004D0004FF0000A23F0004150EA050220D054EA10
:1004E00001021DD0C5F30A570246C5F31303C1F339
:1004F0001300C1F30A5640F4801543F48013A7EBB0
:100500000608101BD64608F2FD3873EB050002D32F
:1005100008F1010801E092185B41B8F1000F03DA1D
:1005200000200146BDE8F08D00204FF48011064602
:1005300084460EE0171B73EB050705D3121B63EB14
:10054000050306434CEA010C49084FEA30009218B3
:100550005B4150EA0107EDD152EA030012D082EA72
:10056000040083EA0501084305D0101BAB4106D205
:100570000122002306E000224FF0004302E06FF06A
:10058000010253101AEB06004CEB085110EB0A0065
:1005900041EB0B01BDE8F04D00F0B1B80EB540F2F3
:1005A000334102910021CDE900110A460B4600F0CB
:1005B000B5F803B000BD00F0004230F000400AD0B2
:1005C000C10D01F56071C0F3160042EA0151C20885
:1005D00040071143704700200146704730B5041EA4
:1005E00071F1000404DB4FF00044404264EB010170
:1005F000141E73F1000405DB1C464FF00043524209
:1006000063EB0403994208BF904230BD01F0004300
:1006100030B421F0004150EA010206D00A0DA2F5E3
:100620006072C1F31301002A02DC30BC0020704765
:10063000440F44EAC104C100E01830BC00EBC250D2
:1006400000F026B830B50B460146002020220124D8
:1006500009E021FA02F59D4205D303FA02F5491B90
:1006600004FA02F52844151EA2F10102F1DC30BDA6
:10067000202A04DB203A21FA02F00021704721FAF7
:1006800002F3D040C2F1200291400843194670475E
:100690000029A8BF7047401C490008BF20F0010096
:1006A000704710B4B0FA80FC00FA0CF050EA010474
:1006B00004BF10BC704749B1CCF1200421FA04F406
:1006C00011FA0CF118BF012121430843A3EB0C01DF
:1006D000CB1D4FEA00614FEA102042BF002010BC42
:1006E000704700EBC35010440029A4BF10BC7047F2
:1006F000401C490008BF20F0010010BC704710B535
:10070000141E73F1000408DA401C41F10001921834
:100710005B411A4301D120F0010010BD2DE9F04DDD
:1007200092469B4611B1B1FA81F202E0B0FA80F232
:1007300020329046FFF777FD04460F4640EA0A0054
:1007400041EA0B0153465A46084313D0114653EA77
:10075000010019D0C8F140025046FFF789FF054655
:100760000E46504659464246FFF75DFD084305D008
:10077000012004E020463946BDE8F08D0020054305
:1007800046EAE0762C4337430A986305E40AA0EB77
:1007900008000022FD0A44EA47540A3002D500202E
:1007A0000146E9E7010510196941DDE9084500192D
:1007B0006941BDE8F04DA2E7C1F30A52C1F313014C
:1007C00040F2FF3341F480119A4202DA00200146E0
:1007D000704740F233439A42A2F2334202DC524263
:1007E000FFF746BFFFF71FBD00207047064C074DBF
:1007F00006E0E06840F0010394E8070098471034F1
:10080000AC42F6D3FFF7C4FCC4690008E4690008F1
:10081000464910B54A6822F440324A604A68436843
:100820001A434A6001684A6822F480724A6001688B
:100830004A68036942EA03224A6001684A6822F072
:1008400040724A6001684A6883681A434A600168D6
:100850008A6822F400628A6001688A68C3681A4361
:100860008A60816A6FF07062D14201688A6822F002
:1008700070628A6001688A680CD0836A1A438A6051
:1008800001688A6822F040528A6001688A68C36AF7
:100890001A4301E022F040528A6001688A6822F01F
:1008A00002028A6001688A68037E42EA43028A6023
:1008B00090F82010002901684A680FD042F40062C5
:1008C0004A6001684A6822F460424A6001684A68E6
:1008D000174C436A04EB43331A4301E022F40062ED
:1008E0004A600168CA6A22F47002CA620168CA6A70
:1008F000838B104C04EB03531A43CA6201688A6865
:1009000022F400728A6001688A6890F8303042EA06
:1009100043228A6001688A6822F480628A600168E2
:100920008A68406942EA8020886010BD0023014047
:1009300000E0FFFF0000F0FFFEE70000014800F0CC
:10094000C7BC00007446002001681823CAB2103AE0
:10095000B2FBF3F2054B6FF30901032A9B5CC365FD
:1009600000D9091D8165084670470000245400081D
:1009700010B5014600208B698A6A4FF0C07453B1EC
:10098000B3F5005F15D072B1012A0CD0022A0AD04B
:10099000032A09D104E01AB1012A06D0022A03D1A0
:1009A000C96AC90100D5012010BDC96AA142FAD0A7
:1009B00010BD002AF7D0012AF2D0022AF3D0032A70
:1009C000F3D010BD704772B6FEE700002DE9F04F7E
:1009D0008B462DED0A8B87B082469FED638A634973
:1009E0008DED008A8DED018A8DED028A0020049044
:1009F0005F4B498903F580654FF4007633F9102089
:100A000000EE102A05EBC002401CF8EEC00A00EE12
:100A1000101AB042B8EE400A80EE801A82ED001A39
:100A200082ED018AEADB012300225249524803F099
:100A3000AEFE4FF480794C464A4650494D4804F08A
:100A4000E7F94E4F04AB6A4687ED008A21463846E7
:100A500004F000FA049805EBC000D0ED000A90ED18
:100A6000010A01A803F066FD9DED000AF0EE008A80
:100A700020EE280A9FED429A20EE090A8DED000A29
:100A80009DED010ADFED3F9A20EE290A10EE100AD3
:100A9000FFF791FD9FED3CAB53EC1A2BFFF70FFDD9
:100AA000FFF7B4FDB0469FED3ABB9FED3BCB002472
:100AB000A7F5C056CDF8040036F81400FFF76EFD18
:100AC00053EC1B2BFFF789FC53EC1C2BFFF7F7FCB7
:100AD000FFF79CFD05EBC401641C086081ED018AF1
:100AE0004445E9DB012300222249234803F04FFE5D
:100AF0004A4622491F4804F08BF987ED008A049882
:100B000007EB800105EBC00091ED008AD0ED000AF3
:100B100090ED010A02A803F00DFD28EE280A20EE50
:100B2000098A9DED020A20EE290A10EE100AFFF74D
:100B300042FD53EC1A2BFFF7C2FCFFF767FD029052
:100B40009DED000AC8EE000ACAED000A9DED020AFA
:100B5000DDED010A30EE600A8BED000A07B0BDEC56
:100B60000A8BBDE8F08F00000000000000000020AC
:100B70007404002074080020C46700087418002062
:100B80000000003B000034431F85EB51B81E0940B4
:100B90006666666666660A400000000000FEAF40BA
:100BA0002DED028B2F4C029D9DED031ADDED040A05
:100BB0009DED050AC4E90401C4E90623E9B22171E7
:100BC000C4ED090A104684ED0A0A84ED081A4FF4B0
:100BD0007A7211FB02F101EE901A234E04F12C05FA
:100BE000F8EE611A81EE812AB7EE001A32EE411A50
:100BF000BCEEC11A11EE101A8BB26381002100BF46
:100C000001EE103A05EB8102B8EE411AD2ED001A5E
:100C100021EE811A21EE001ABDEEC11A11EE102A42
:100C200026F81120491C0829EADB00EE103A0F4A89
:100C3000B8EE400A20EE200ABCEEC00A10EE101AF0
:100C400021810E2101F0C4FCA06901F00DFA9FED95
:100C5000088A0A20F3EE040AB0EE480A00F05CF8B5
:100C6000F7E700000000002064000020750C000879
:100C70000AD7233C10B50221104800F05BFD104854
:100C80004178491C41704178082901D30021417005
:100C90000C49427831F912100289114442691268F4
:100CA0005163C17811B10178491C01708078002826
:100CB00003D0BDE8104000F007B810BD000C0240A2
:100CC000000000206400002010B5114CE088B0F551
:100CD000007F1BD2206900F021FA3221206900F048
:100CE000C7F980B9206900F065F90A49E28821F85E
:100CF0001200A1F110006178E28830F8111000F5BF
:100D0000826020F81210E088401CE08010BD0000D6
:100D100000000020740000202DE9F04F2DED028B23
:100D200087B00446F0EE608A02F08EFBB0EE408A97
:100D3000B0EE680A02F088FBF0EE400A00EE104ABE
:100D400070EEC88A0024B8EE400AA346DFF8E8A097
:100D500028EE800ABCEEC00A10EE100AC5B264E0AC
:100D600000EE105A641CE4B2F8EE400A88EEA00AC5
:100D700030EE088AB2EE040AF0EE480A02F024FCD3
:100D8000F2EE000A8AED030A20EE200A9AF8040027
:100D900056464FF47A7110FB01F0400800EE900ABD
:100DA000DAF81800F8EE600A026880EE801AB7EEF2
:100DB000000A31EE400ABCEEC00A10EE101AD162F1
:100DC0004FF0010886F803805F4686F800B001F016
:100DD0004BF930785028FCD9F77086F80280F780FC
:100DE0004FF40070F1888142FCD3B246B770B0690D
:100DF00001F07AF905A904A8FFF7E8FD0598FFF7C7
:100E0000DAFB804689460498FFF7D5FB06460F4675
:100E1000DAF80C00FFF7CFFB8DE8C00341EC100BB4
:100E200006A053EC102B02F0DBFAAC4298D307B0CB
:100E3000BDEC028BBDE8F08F0000002046726571AA
:100E4000203D20252E36666B487A2C204761696E3E
:100E5000203D20252E32662C205368696674203D83
:100E600020252E32660A000078B50024009490F800
:100E70003C20012A19D0012280F83C200A6807236F
:100E80000568092A13D9EE680A3A02EB4202934038
:100E90009E43EE600B788A680A3B03EB43039A405B
:100EA0000368DD682A43DA6010E0022078BD2E690D
:100EB00002EB420293409E432E610B788A6803EB5B
:100EC00043039A4003681D692A431A614A681F2335
:100ED000072A13D205686E6B521E02EB8202934002
:100EE0009E436E630B790A885B1E92B203EB830309
:100EF0009A4003685D6B2A435A6327E005680D2A10
:100F000012D22E6BD21F02EB820293409E432E63BD
:100F10000B790A88DB1F92B203EB83039A400368C4
:100F20001D6B2A431A6311E0EE6A0D3A02EB82024E
:100F300093409E43EE620B790A880D3B92B203EB1D
:100F400083039A400368DD6A2A43DA62164B056818
:100F5000144A9D4206D10D68122D03D1556845F4FF
:100F60008005556005689D4218D10B68102B01D093
:100F7000112B13D1536843F40003536009681029FF
:100F80000CD10A490A4A0968B1FBF2F101EB81016F
:100F9000490000E0491E00910029FBD180F83C4047
:100FA000002078BD002301400020014058000020AF
:100FB00040420F000068C06C704770B504004FF0ED
:100FC000000503D0206C002610B107E0012070BDA1
:100FD000204600F01DF8666484F83C60206CC00672
:100FE00010D4206C20F4885040F002002064204689
:100FF000FFF70EFC6664206C20F0020040F0010058
:10100000206400E0012584F83C60284670BD0000A3
:1010100010B586B0044614216846FFF72CF9114933
:10102000206888421CD110480021026842F4807276
:101030000260006800F4807005900B481438026864
:1010400042F001020260006800F0010005900120FA
:1010500000900320CDE901016946044800F072FACE
:1010600006B010BD0020014044380240000002409C
:101070002DE9F041044600680D4681684FF00007F5
:1010800049050BD58068C00508D5206C40F02000CC
:10109000206484F83C700120BDE8F08100F058FB2A
:1010A000064613E0681C11D025B100F051FB801BEF
:1010B000A8420BD920680068800707D4206C40F054
:1010C0000400206484F83C700320E5E72068006891
:1010D0008007E7D521686FF012000860206C40F4AB
:1010E000007020642068816811F0405F13D1217E78
:1010F00089B9C16A11F4700F02D0806840050AD422
:10110000206C20F480702064206CC00403D4206C18
:1011100040F0010020640020BEE7000018B5002167
:10112000009190F83C20012A07D0012280F83C2051
:1011300002689368DB0702D011E0022018BD9368B3
:1011400043F0010393602E4A2E4B1268B2FBF3F278
:1011500002EB420200E0521E0092002AFBD102681C
:101160009368DB0742D0036C40F20164A34343F46D
:101170008073036453685B0505D5036C23F4005347
:1011800043F480530364036CDB0404D5436C23F005
:101190000603436400E0416480F83C101A496FF094
:1011A0002203136049680068CA06184906D08842BD
:1011B00024D1816811F0405F13D01FE08842F8D03D
:1011C000134A904203D1D1F80423D206F1D0114A38
:1011D000904213D1D1F8041301F01F011029E8D374
:1011E0000CE0816841F08041816007E0016C41F0D2
:1011F00010010164416C41F001014164002018BDFF
:101200005800002040420F00002301400020014010
:1012100000210140002201402DE9F0410446876D84
:1012200000F096FA064694F835000025022806D00C
:101230008020606584F834500120BDE8F08120688A
:10124000016821F0160101602068416921F08001E8
:101250004161206C08B9A06C20B12068016821F0C0
:10126000080101602068016821F0010101600CE0C3
:1012700000F06EFA801B052807D920206065032046
:1012800084F8350084F83450D7E720680068C00738
:10129000EED194F85C103F208840B860012084F8BB
:1012A000350084F834500020C7E790F83510022943
:1012B00003D08021416501207047052180F8351059
:1012C0000068016821F00101016000207047000002
:1012D0002DE9F84304464FF00009CDF8009063482B
:1012E0004FF41651A56D0068B0FBF1F72E6894F825
:1012F0005C10082000FA01F131420FD021680A6821
:1013000052070BD50A6822F004020A6094F85C10B8
:101310008840A860606D40F00100606594F85C1042
:101320004FF0010808FA01F0304208D021684969FD
:10133000090604D5A860606D40F00200606594F86D
:101340005C1004208840304208D021680968890771
:1013500004D5A860606D40F00400606594F85C10EE
:1013600010208840304218D021680968090714D538
:10137000A86020680168490304D50068000308D507
:10138000A16C07E00168C90503D4016821F00801D8
:101390000160216C09B12046884794F85C10202038
:1013A0008840304231D021680968C9062DD5A8602F
:1013B00094F8350005282068016806D0490347D510
:1013C000006800031DD4616C1CE021F0160101606F
:1013D0002068416921F080014161206C08B9A06C4E
:1013E00020B12068016821F00801016094F85C10C8
:1013F0003F208840A86084F8358084F83490216DBF
:101400001FE0E16B09B120468847606D00282BD0B2
:10141000606DC00714D0052084F83500206801688D
:1014200021F0010101600098401C0090B84203D8EF
:1014300020680068C007F6D184F8358084F83490BD
:10144000E16C002910D001B02046BDE8F043084708
:101450000168C905D5D4016821F01001016084F844
:10146000358084F83490CCE7BDE8F883580000203C
:101470002DE9F041044600F06BF906465CB102200C
:1014800084F83500002584F834502068016821F084
:10149000010101600DE00120BDE8F08100F058F984
:1014A000801B052805D920206065032084F83500BD
:1014B000F2E720680068C007F0D122681168204870
:1014C0000140D4E901031843D4E9033633431843F8
:1014D00063691843A3691843E3691843236A1843EF
:1014E0000843616A042903D1D4E90B131943084363
:1014F000106020684069666A20F0070130460E439C
:10150000012704280CD1A06A0643E06A40B12046B6
:10151000FFF72EFA20B14020606584F83570BAE7F5
:10152000206846612046FFF70FFA94F85C203F21BF
:1015300091408160656584F835700020ACE700005B
:101540003F8010F02DE9F84FDFF8BCA10022012503
:1015500003264FF00F090AF1040BAAF1040E00BF95
:101560000B6805FA02F42340A34270D10F7907F00B
:101570000307012F01D0022F16D187684FEA4208D6
:1015800006FA08FC27EA0C07D1F80CC00CFA08FC94
:101590004CEA070CC0F808C04768A7430C79C4F3AD
:1015A000001494403C4344600C79E443A4070AD0FF
:1015B000C4684FEA420C06FA0CF7BC438F6807FA7E
:1015C0000CF72743C7600C7904F00304022C12D1F6
:1015D000D40800EB840CDCF820405707FF0E09FA12
:1015E00007F824EA0804D1F8108008FA07F848EA56
:1015F0000408CCF8208004684FEA420C06FA0CF785
:10160000BC430F7907F0030707FA0CF7274307607D
:101610004C6814F4403F70D03C4C276847F4804736
:101620002760246822F0030704F480440094384CB7
:1016300007EB040CDCF8084897074FEA177809FA1B
:1016400008F7BC43334FB84202D1002724E054E0EE
:10165000314FB84201D101271EE0304FB84201D1CD
:10166000022719E02E4FB84201D1032714E02D4F75
:10167000B84201D104270FE02B4FB84201D1052712
:101680000AE02A4FB84201D1062705E0284FB842A8
:1016900001D1072700E0082707FA08F72743CCF80D
:1016A0000878DAF800405746D1F804C09C435FEA56
:1016B000CC2C00D51C433C60DBF800405F46D1F8E1
:1016C00004C09C435FEA8C2C00D51C433C60DEF8D0
:1016D00000407746D1F804C09C435FEA8C3C00D5BB
:1016E0001C433C60084F083F3C68D1F804C09C4351
:1016F0005FEACC3C00D51C433C60521C102AFFF42E
:101700002FAFBDE8F88F0000083C0140443802408C
:101710000030014000000240000402400008024086
:10172000000C024000100240001402400018024069
:10173000001C0240426921EA02030A4043EA0241D6
:10174000816170470AB1816170470904FBE70000BD
:1017500001488068704700004C0000200248816802
:1017600002781144816070474C0000200B4810B58E
:10177000016841F400710160016841F48061016019
:10178000016841F480710160032000F06FF80F20C0
:1017900000F006F800F024F8002010BD003C0240E4
:1017A00070B50D4D04464FF47A712878B1FBF0F016
:1017B0000A490968B1FBF0F000F00CFB48B9102CA5
:1017C00007D200222146501E00F030F800206C6045
:1017D00070BD012070BD00004C00002058000020AA
:1017E0000A4808B5016841F480410160006800F4CE
:1017F000804000900548001F016841F08051016061
:10180000006800F08050009008BD0000443802409D
:10181000002809DB00F01F020121914040098000EF
:1018200000F1E020C0F8001170470000F0B40E4B4A
:101830001B680C46C3F30223C3F10705042D00D92E
:101840000425191D072901D2002300E0DB1E012613
:1018500006FA05F1491E214099409E40761E164029
:101860003143F0BC01F0DFBD0CED00E0064900F0B3
:10187000070208684FF6FF03184040EA0220034AB7
:1018800010430860704700000CED00E00000FA050E
:101890002DE9F0470E46050065D0DFF81481D8F831
:1018A0000000F7B200F00700B04207D288F80070DD
:1018B000D8F8000000F00700B04254D128683D4C31
:1018C000810712D5400703D5206840F4E05020601E
:1018D0002878000703D5206840F460402060206825
:1018E000A96820F0F000084320602878C0072DD0B8
:1018F000304968680839012812D0022813D003281B
:1019000011D00968890700292DDA216821F0030127
:1019100001432160FFF71CFF814641F2883A0EE047
:1019200009688903EFE709688901ECE7FFF710FF11
:10193000A0EB0901514502D90320BDE8F0872068DA
:10194000696800F00C00B0EB810FEFD1D8F80010FF
:10195000404601F00701B14207D90770006800F066
:101960000700B04201D00120E7E72878400705D5FD
:101970002068E96820F4E0500843206028780007D8
:1019800006D52068296920F4604040EAC100206043
:1019900000F038F82168084AC1F30311515CC840CF
:1019A0000649086006480068FFF7FAFE0020C4E711
:1019B000003C0240083802402C5400085800002027
:1019C000500000200448054900680968044AC1F332
:1019D0008221515CC84070475800002008380240FE
:1019E0003C5400080448054900680968044AC1F3EA
:1019F0004231515CC840704758000020083802400E
:101A00003C540008154810B5006810F00C0214484A
:101A100013D01449042A0FD0082A0ED10F4C241FCA
:101A20002268236802F03F025B0207D52068C0F3FA
:101A30008810A0FB010106E0084610BD2168C1F333
:101A40008811A1FB00010023FEF7BCFB2168C1F354
:101A50000141491C4900B0FBF1F010BD08380240BB
:101A60000024F40040787D012DE9F84F04006ED089
:101A70002078DFF84C93C007A9F104054AD009F19A
:101A800004000168C1F38101012908D00068C0F396
:101A9000810002280AD1D9F80000400206D5286842
:101AA000800337D560680028E1D033E06068B0F586
:101AB000803F10D0B0F5A02F286810D020F48030DF
:101AC0002860286820F4802028606068A8B1FFF7AB
:101AD0003FFE06460DE0286840F48030F4E740F40D
:101AE00080202860F7E700BFFFF732FE801B6428E4
:101AF00073D828688003F7D50CE0FFF729FE064667
:101B000005E000BFFFF724FE801B6428F0D828689A
:101B10008003F7D42078DFF8AC8280074FF0000A0A
:101B20003ED5A748001D016811F00C0F08D00068D1
:101B3000C0F3810002280BD1D9F80000400207D47D
:101B40002868800716D5E068012800D112E033E14B
:101B5000E068B8B10120C8F80000FFF7F9FD0646BB
:101B600005E000BFFFF7F4FD801B0228C0D82868FD
:101B70008007F7D52868216920F0F80040EAC10005
:101B800028600DE0C8F800A0FFF7E2FD064604E07B
:101B9000FFF7DEFD801B02281FD828688007F7D4D6
:101BA0002078000722D5864F87486169703771B168
:101BB00001210160FFF7CCFD064604E0FFF7C8FDF8
:101BC000801B022809D838688007F7D50EE0C0F8D6
:101BD00000A0FFF7BDFD064605E082E0FFF7B8FD77
:101BE000801B02287DD838688007F7D4207840070A
:101BF00068D5DFF8CCB100270BF13C0BDBF8000017
:101C0000C0000BD4DBF8001041F08051CBF800107D
:101C1000DBF80000012700F0805000906B4E306828
:101C2000C00510D4306840F480703060FFF790FD3C
:101C3000009005E0FFF78CFD0099401A022850D86B
:101C40003068C005F6D55E4EA0686C3601280FD00E
:101C50000528306810D020F001003060306820F096
:101C600004003060A068B8B1FFF772FD00900FE08B
:101C7000306840F00100F4E740F004003060F7E71E
:101C8000FFF766FD0099411A41F28830814266D81B
:101C900030688007F4D50EE0FFF75AFD009007E0AA
:101CA000FFF756FD0099411A41F28830814256D81B
:101CB00030688007F4D42FB1DBF8001021F0805198
:101CC000CBF80010A069C8B33D49091D0968C1F3EC
:101CD000810102294AD00228504607D0C8F8600086
:101CE00000E03CE0FFF734FD04463BE04746C8F81F
:101CF0006000FFF72DFD064605E000BFFFF728FD59
:101D0000801B02282BD828688001F7D4D4E907016A
:101D10000843A16A2E4A490802EB0141626A41EA7E
:101D20008211084394F82C1040EA0161C9F80010B0
:101D300001203866FFF70CFD044606E03EE000BFD8
:101D4000FFF706FD001B022809D828688001F7D597
:101D500034E000BFFFF7FCFC001B022802D903207F
:101D6000BDE8F88F28688001F4D427E00128F7D077
:101D7000D9F80000E26900F4800191421CD1226A86
:101D800000F03F01914217D147F6C071626A0140ED
:101D9000B1EB821F10D1A26A4FF0FF3300F4403143
:101DA00003EB5202B1EB024F06D194F82C1000F075
:101DB0007060B0EB016F01D00120D1E70020CFE7C8
:101DC0000438024000004742800E47420070004045
:101DD0000000FFFF10B5401EB0F1807F01D301204D
:101DE00010BD4FF0E02460610F21601701F01BFB74
:101DF0000020A06107202061002010BD70477047BF
:101E0000704710B590F83C20012A22D0012280F8BA
:101E10003C20CA688C6822F4407222434C6822F449
:101E2000806222430C6822F4006222430C6922F48F
:101E3000805222434C6922F400522243C969002394
:101E400022F480420A4301684A6480F83C30002052
:101E500010BD022010BD000070B590F83C20012A92
:101E600032D0012480F83C40022280F83D200368F3
:101E70005A689D6822F070060A6832435A60134B14
:101E800002689A4214D0B2F1804F11D0104B9A429E
:101E90000ED0104B9A420BD00F4B9A4208D00F4BEA
:101EA0009A4205D00E4B9A4202D00E4B9A4204D170
:101EB000496825F080031943916080F83D40002176
:101EC00080F83C10084670BD022070BD0000014043
:101ED0000004004000080040000C004000040140E5
:101EE000004001400018004010B50446022249B1EC
:101EF00004290ED0082913D094F84500012816D0E3
:101F0000012010BD94F842000128F9D184F8422044
:101F10000FE094F843000128F2D184F8432008E050
:101F200094F844000128EBD184F8442001E084F8BF
:101F300045200422206800F0C0FF2068416C41F475
:101F40000041416411492068884214D0B0F1804FAB
:101F500011D00F4988420ED00E4988420BD00E494D
:101F6000884208D00D49884205D00D49884202D0E8
:101F70000C49884204D1816801F00701062903D089
:101F8000016841F001010160002010BD0000014026
:101F90000004004000080040000C00400004014024
:101FA000004001400018004010B5040003D094F830
:101FB0003D0010B10EE0012010BD002084F83C006F
:101FC000204601F05BF8A06C08B91148A0640146F6
:101FD00020468847022084F83D00211D206800F03B
:101FE000F3FE012084F8460084F83E0084F83F00A8
:101FF00084F8400084F8410084F8420084F84300EB
:1020000084F8440084F8450084F83D00002010BDA9
:102010001520000808B500681149884209D1114807
:10202000016841F001010160006800F001000090CA
:1020300008BDB0F1804FFBD10A48001F016841F094
:10204000010101600068002200F0010000901146CB
:102050001C20FFF7EBFBBDE808401C20FFF7D8BBB6
:10206000000001404438024090F83D10012901D0A1
:1020700001207047022180F83D100168CA6842F0D3
:102080000102CA6000681149884214D0B0F1804F43
:1020900011D00F4988420ED00E4988420BD00E490C
:1020A000884208D00D49884205D00D49884202D0A7
:1020B0000C49884204D1816801F00701062903D048
:1020C000016841F0010101600020704700000140FB
:1020D0000004004000080040000C004000040140E3
:1020E00000400140001800400168CA6822F0010267
:1020F000CA6001680A6A41F211131A4207D10A6ADA
:102100009B101A4203D10A6822F001020A600121E1
:1021100080F83D100020704770B5044690F83C00F0
:102120000025012817D0012684F83C60022084F89D
:102130003D002068826822F0770222F47F428260AC
:102140000868502838D00DDC20284FD005DC90B32B
:10215000102811D14AE0022070BD302846D0402816
:102160000AD13BE060282FD070280DD0B0F5805FF9
:1021700003D0B0F5005F12D0012584F83D60002047
:1021800084F83C00284670BDCB68D1E90121206865
:1021900000F0A0FE2068816841F0770109E0CB687B
:1021A000D1E90121206800F095FE2068816841F4A2
:1021B00080418160E1E719E0CA684968206800F061
:1021C00093FF5021206806E0CA684968206800F043
:1021D0009CFF6021206800F087FECEE7CA6849684E
:1021E000206800F081FF40212068F4E72268014662
:1021F0001046F0E77047704770472DE9F0410446FC
:102200000068C66805694FF00007A90715D5B10732
:1022100013D5F91E016101202077206880698007AD
:1022200002D0D4F8901005E0D4F8981020468847E2
:10223000D4F89C10204688472777680718D5700780
:1022400016D521686FF0040008610220207720680D
:10225000806910F4407F02D0D4F8901005E0D4F8E3
:10226000981020468847D4F89C1020468847277746
:10227000280717D5300715D521686FF008000861C9
:10228000042020772068C069800702D0D4F890101D
:1022900005E0D4F8981020468847D4F89C102046D2
:1022A00088472777E80618D5F00616D521686FF01D
:1022B00010000861082020772068C06910F4407F72
:1022C00002D0D4F8901005E0D4F898102046884742
:1022D000D4F89C10204688472777E80709D0F007F4
:1022E00007D021686FF001000861D4F88010204603
:1022F0008847280609D5300607D521686FF0800089
:102300000861D4F8B01020468847680609D57006E1
:1023100007D521686FF040000861D4F88810204686
:102320008847A8060BD5B00609D521686FF02000B4
:1023300008612046D4F8A810BDE8F0410847BDE880
:10234000F081000070B586B0044614216846FDF7A0
:1023500092FF17492068884227D116480024016857
:1023600041F001010160016801F00101059101687E
:1023700041F0100101600068022500F01000059096
:1023800080200090CDE901540126CDE9034669463D
:102390000948FFF7D7F828020090CDE90154CDE9AC
:1023A000034669460548FFF7CDF806B070BD00004A
:1023B000000001403038024000000240001002409E
:1023C000704770B5044690F83C0000260D46012881
:1023D0000FD0012084F83C006AB1042A1DD0082ADD
:1023E0002FD00C2A3FD00126002084F83C00304634
:1023F00070BD022070BD206800F07EFD20688169FC
:1024000041F0080181612068816921F00401816146
:10241000206881692A69114311E0206800F09CFD61
:102420002068816941F4006181612068816921F43B
:1024300080618161206881692A6941EA02218161A4
:10244000D2E7206800F0BEFD2068C16941F00801B4
:10245000C1612068C16921F00401C1612068C169BE
:102460002A69114311E0206800F0E0FD2068C1698D
:1024700041F40061C1612068C16921F48061C161DA
:102480002068C1692A6941EA0221C161ACE7000004
:1024900010B5040003D094F83D0010B10EE0012007
:1024A00010BD002084F83C00204600F0E7FD206EBF
:1024B00008B911482066014620468847022084F862
:1024C0003D00211D206800F07FFC012084F84600BB
:1024D00084F83E0084F83F0084F8400084F841000E
:1024E00084F8420084F8430084F8440084F84500EE
:1024F00084F83D00002010BDFD240008704770479F
:102500007047000010B50446022249B104290ED0DC
:10251000082913D094F84100012816D0012010BDDD
:1025200094F83E000128F9D184F83E200FE094F899
:102530003F000128F2D184F83F2008E094F84000E1
:102540000128EBD184F8402001E084F841200122E9
:10255000206800F0A5FC16492068164A884201D080
:10256000904203D1436C43F40043436420688842A3
:1025700013D0B0F1804F10D00F4988420DD00F49D1
:1025800088420AD00E49884207D0904205D00D49B2
:10259000884202D00C49884204D1816801F00701C9
:1025A000062903D0016841F001010160002010BD3F
:1025B0000000014000040140000400400008004009
:1025C000000C004000400140001800407047704778
:1025D00010B500233AB190F83D40012C05D090F899
:1025E0003D407CB362E0012010BD1B295ED2DFE8D4
:1025F00001F041434547494B4D4F51535557595BA6
:102600000E1114171A1D2023262A2D303300C0F86E
:1026100080204CE0C0F8842049E0C0F8882046E0E3
:10262000C0F88C2043E0C0F8902040E0C0F894202F
:102630003DE0C0F898203AE0C0F89C2037E0C0F8B0
:10264000A02034E00BE0C0F8A42030E0C0F8A820BF
:102650002DE0C0F8AC202AE0C0F8B02027E00E2919
:1026600024D2DFE801F007090B0D0F11131517191C
:102670001B1D1F2182641AE0C26418E0026516E087
:10268000426514E0826512E0C26510E002660EE069
:1026900042660CE082660AE0C26608E0026706E075
:1026A000426704E0826702E0C26700E00123184647
:1026B00010BD70477047704770470000F8B501685B
:1026C00004460868CA684B6910F00F0F4FF0000508
:1026D00059D003F0010602F49077374365D0C10763
:1026E00005D0D10503D5616C41F00101616441075A
:1026F00005D5D90703D0616C41F0020161648107FF
:1027000005D5D90703D0616C41F00401616401076C
:1027100007D502F02001314303D0616C41F008017C
:102720006164616C00293AD0800604D5900602D518
:10273000204600F02BFD20684069616CC0F38010DA
:10274000090700D460B3204600F0F9FC2068406916
:10275000400621D52068143050E8001F21F04001C8
:1027600040E80012002AF5D1E06BA8B16E4901657E
:10277000E06BFEF79AFD002811D0E06B016D01B00F
:10278000BDE8F040084783060FD593060DD52046D7
:10279000BDE8F84000F0FABC2046FFF78DFFF8BD19
:1027A0002046FFF789FF6564F8BD266B2023012EC4
:1027B0007DD1C6067BD5D60679D5086848680090D5
:1027C00048694FF00206400641D5E16B0868406851
:1027D0000004000CE8D0A28D8242E5D9E085C869EA
:1027E000B0F5807F2DD020680C3050E8001F21F418
:1027F000807140E80012002AF5D12068143050E8BA
:10280000001F21F0010140E80012002AF5D12068E4
:10281000143050E8001F21F0400140E80012002A67
:10282000F5D184F84230256320680C3050E8001F51
:1028300021F0100140E80012002AF5D1E06BFEF70C
:10284000EBFC6663A08DE18D401A81B22AE0A08D79
:10285000E18D401A81B2E08D0028A5D00029A3D0D7
:1028600022680C3252E8000F20F4907042E8000712
:10287000002FF5D12068143050E8002F22F001021B
:1028800040E80027002FF5D184F842302563206806
:102890000C3050E8002F22F0100240E80023002BFB
:1028A000F5D166632046FFF706FFF8BDFFE7050692
:1028B0002BD5150629D594F841002128F5D1A0681B
:1028C000B0F5805F01D12069B0B1206A411C21625E
:1028D000216800784860E08C401E0004000CE08411
:1028E000E3D12068C16821F08001C1602068C1681F
:1028F00041F04001C160D8E7206A0088C0F30800B9
:102900004860206A801C2062E5E74006CDD550066D
:10291000CBD5CA68204622F04002CA6084F8413014
:1029200000F0E1F8C1E700002F31000870B50400A5
:1029300004D094F84100002510B106E0012070BDDC
:1029400084F84050204600F023F8242084F8410009
:102950002068C16821F40051C160204600F078FC75
:102960002068016921F4904101612068416921F0EA
:102970002A0141612068C16841F40051C160656469
:10298000202084F8410084F842006563002070BD77
:1029900070B586B0064614216846FDF76CFC2449E4
:1029A0003068884242D123480025016841F0100177
:1029B0000160006800F0100005901E48143801689E
:1029C00041F0010101600068694600F001000590D6
:1029D0004FF4C06000900220CDE901050320039070
:1029E000072004901448FEF7ADFD154C13482060F5
:1029F0004FF0006060604020C4E902050001C4E9B6
:102A000004058001A561C4E9075020466562FEF710
:102A10002FFD08B1FDF7D7FFB46300221146252032
:102A2000A663FEF703FF2520FEF7F2FE06B070BD99
:102A3000001001404438024000000240B8640240E7
:102A40007446002070472DE9F843044690F8410091
:102A5000984616460D46202802D00220BDE8F8838D
:102A600085B17EB100206064212084F84100FEF72A
:102A70006FFEA6848146E684A0682027B0F5805FBB
:102A800002D003E00120E9E7206910B12E460025BD
:102A90000EE000260CE08021204600F05FFCA8B983
:102AA000C6B116F8010B21684860E08C401EE08436
:102AB000E08C4B464FF00002CDF800800028EAD1B0
:102AC0004FF04001204600F049FC40B184F84170CD
:102AD0000320C3E735F8020BC0F30800E3E784F8EE
:102AE00041700020BAE77047FEE700007FB5002480
:102AF00015480094019402941249039401604FF424
:102B00008031C0E901140461047680F820400F4947
:102B1000C0E90A140125C561C46080F830404561F0
:102B2000FEF74BFA08B172B6FEE7CDE900456946FB
:102B300005480294FEF798F9002801D072B6FEE726
:102B40007FBD0000002001407C4400200100000FF8
:102B500030B587B014216846FDF78DFB1D48002471
:102B6000016841F080010160016801F08001059178
:102B7000016841F001010160016801F00101059166
:102B8000016841F010010160016801F01001059138
:102B9000016841F008010160016801F00801059138
:102BA000016841F00201016000680B4D00F0020075
:102BB0000590002202212846FEF7C4FD0220009065
:102BC0000120CDE90104694628460394FEF7BAFCCA
:102BD00007B030BD30380240000C024010B596B04E
:102BE00000240F9410941194129413941C2108A89B
:102BF0001494FDF740FB20216846FDF73CFB294873
:102C00002749C0E9001440F28F61C0E902418021E8
:102C10000461C0E90541FFF7C7F908B172B6FEE7E4
:102C20004FF480500F900FA91E48FFF775FA08B1B6
:102C300072B6FEE71B48FFF72BFC08B172B6FEE741
:102C4000139413A917481494FFF706F908B172B644
:102C5000FEE76020CDE908040A940B940C940D94CF
:102C6000002208A90F480E94FFF7ABFB08B172B61B
:102C7000FEE76420CDE9024000944FF40050CDE916
:102C800004400194694607480794FFF7BAF808B171
:102C900072B6FEE70348FFF755FB16B010BD000003
:102CA00000000140C444002010B586B0002416483E
:102CB000009401940294039404944FF0804105948D
:102CC000C0E9001440F28F61C0E902418021046133
:102CD0008161FFF769F908B172B6FEE74FF48050E1
:102CE000009069460848FFF717FA08B172B6FEE788
:102CF000049404A904480594FFF7AEF8002801D015
:102D000072B6FEE706B010BD78450020FEE7FEE78C
:102D100070477047FEF722BD30B593B0302168464A
:102D2000FDF7A9FA14210CA8FDF7A5FA1D48002506
:102D3000016841F080510160006800F080501190FE
:102D40001948016841F4804101600068022400F4E0
:102D5000804011900120039010200490009406946C
:102D60000820CDE90750A820CDE9090404200B90E4
:102D70006846FEF779FE08B172B6FEE70CA90F208F
:102D800081E831004FF4A0500F904FF48050109024
:102D900005210CA8FEF77CFD002801D072B6FEE7E5
:102DA00013B030BD40380240007000400248016856
:102DB00041F470010160704788ED00E00148FFF7C1
:102DC0001CBA000078450020F0B50268294C2A4D55
:102DD0002A4E2B4F2B4B4FF0804CA04209D0604520
:102DE00007D0A84205D0B04203D0B84201D09842E3
:102DF00004D122F0700E4A6842EA0E02A0421BD0B3
:102E0000604519D0A84217D0B04215D0B84213D0AF
:102E1000984211D01C4DA8420ED01C4DA8420BD098
:102E20001B4DA84208D01B4DA84205D01A4DA84200
:102E300002D01A4DA84203D122F44075CA682A4331
:102E40004D6922F080022A4302608A68C2620A68E1
:102E50008262A04201D0984201D109690163012137
:102E600041610169C90703D0016921F001010161D4
:102E7000F0BD0000000001400004004000080040D8
:102E8000000C0040000401400040014000440140AB
:102E90000048014000180040001C00400020004095
:102EA00010B501F01F030121046A99408C430462AC
:102EB000016A9A401143016210BD10B501F00F0381
:102EC0000421046A99408C430462016A9A401143C8
:102ED000016210BD10B5846842EA032224F47F44E5
:102EE0000A432243826010BD826822F070020A43C6
:102EF00042F0070181607047F0B5036A026A22F070
:102F00000102026242688469124E24F073050C6863
:102F10002C4323F002058B682B430D4DA84201D0B2
:102F2000B04205D123F00807CB683B4323F00403EC
:102F3000A84201D0B04205D14D6922F44072154338
:102F40008A692A4342608461496841630362F0BD33
:102F50000000014000040140F0B5026A036A23F05A
:102F600010030362436884690D6824F4E64444EA6C
:102F700005248D6822F0200242EA05120F4D104E02
:102F8000A84201D0B04206D1CF6822F0800242EAC6
:102F9000071222F04002A84201D0B04207D14D6989
:102FA00023F4406343EA85038D6943EA8503436064
:102FB0008461496881630262F0BD00000000014045
:102FC00000040140F0B5026A036A23F480730362CF
:102FD0004368C46922F4007224F073050C68124E31
:102FE0002C438D6842EA05220E4DA84201D0B04222
:102FF00006D1CF6822F4006242EA072222F48062FE
:10300000A84201D0B04207D14D6923F4405343EAAE
:1030100005138D6943EA05134360C4614968C163C0
:103020000262F0BD000001400004014030B5046AB6
:10303000026A22F4805202624268C3690D6823F476
:10304000E64343EA05238D6824F4005444EA05343A
:10305000084DA84202D0084DA84204D14D6922F47F
:10306000804242EA85124260C36149680164046299
:1030700030BD000000000140000401400D4940F84F
:10308000801F0D4941600D4981600D49C1600D49A6
:1030900001610D4941610D4981610D49C1610D49D0
:1030A00001620D4941620D4981620D49C1620D49BC
:1030B00001637047CD250008CF250008B32600081E
:1030C000B5260008F7210008F9210008C1230008EF
:1030D000FF24000801250008F5210008FF1D000855
:1030E000011E0008FD1D000810B5036A046A24F0E3
:1030F00001040462846924F0F00444EA021423F019
:103100000A020A438461026210BD10B5036A046AB0
:1031100024F010040462846923F0A00324F47044B2
:1031200044EA023243EA01118261016210BD10B526
:10313000806B0021C185C184FFF7BEFA10BD016814
:103140000C3151E8002F22F4907241E80023002B4B
:10315000F5D10168143151E8002F22F0010241E855
:103160000023002BF5D1016B012909D101680C3135
:1031700051E8002F22F0100241E80023002BF5D186
:10318000202180F8421000210163704708B590F8B3
:103190004210222901D0022008BD82684FF48053DA
:1031A0009A4201D1016921B1816A9A421BD04AB188
:1031B0000AE00268816A5268C2F308020A80816AE2
:1031C000891C08E0026972B10268526802F07F024D
:1031D0000A70816A491C8162C18D491E0904090C6B
:1031E000C18503D01BE002685268F1E70168CA6834
:1031F00022F02002CA600168CA6822F48072CA60A4
:1032000001684A6922F001024A61202180F84210D7
:1032100000214163026B012A03D0FFF713FC002059
:1032200008BD016301680C3151E8002F22F0100243
:1032300041E80023002BF5D101680A68D20602D5C7
:103240000A6849680091818DFFF735FAE7E70000C9
:1032500070B5044600680169E26821F440511143E9
:1032600001612169A068E26908436169114308436B
:103270002168CA6849F20C639A430243CA60206815
:103280004169A26921F440711143416131492068CB
:10329000884202D03049884202D1FEF7A3FB01E008
:1032A000FEF790FBE2690023192164253226B2F56E
:1032B000004F626828D0A0FB0101930F9200FCF739
:1032C00081FF0146B0FBF5F06FF01802504301EBAF
:1032D000800006EB0010B0FBF5F000F0F002B1FB4F
:1032E000F5F002EB0012B1FBF5F06FF01803584354
:1032F00001EB800006EB0010B0FBF5F000F00F00D2
:1033000021681044886070BDA0FB010192185B41E8
:10331000FCF758FF0146B0FBF5F00201B1FBF5F0F8
:103320006FF01803584301EB800006EBC000B0FBC0
:10333000F5F000F0F80002EB4002B1FBF5F0584365
:1033400001EB800006EBC000B0FBF5F000F00700D9
:10335000D6E7000000100140001401402DE9F843B9
:10336000984617460D460446089E24E0701C22D05D
:10337000FEF7EEF9A0EB0800B0421AD8CEB12068F3
:10338000C168490717D5802D15D0402D13D001688D
:10339000C94309070FD40168002540680090204602
:1033A000FFF7CDFE0820606484F840500120BDE89E
:1033B000F8830320FBE72068006835EA000004D0AA
:1033C0000020B842D2D00020F1E70120F9E7000048
:1033D0000148FFF773B900002C460020FEE700000B
:1033E0000FB4054B10B503A9044A029800F01EFD66
:1033F00010BC5DF814FB0000495300085C0000207D
:103400004100080218BF04200A0E18BF40F0010056
:103410004FF07F4232EA010108BF40F0020001286C
:1034200008BF052070470907090E002804DB00F1DA
:10343000E02080F80014704700F00F0000F1E02059
:1034400080F8141D7047000010EE100A10B5A0F5AA
:1034500000014FF0000CB1F1FE4F6CD200F50021DD
:103460006FF07E0202EBE153C1F302524FF07E5146
:1034700001EB025100EE901AA0EBC3500CEB0301DC
:1034800000EE100A51EA020036D030EE601A30EE3B
:10349000200AC1EE000A20EEA00A60EE801A9FED1D
:1034A0003D2A9FED3D1A3D48DFED3F2A00EE021A0E
:1034B000784400EB82009FED3A2A21EE810A01EE6A
:1034C000101AD0ED001A3748B8EEC11A784400EB54
:1034D000820041EE021A01EE101A90ED002AB8EEB9
:1034E000C11A01EE222A9FED311A32EE000A00EED7
:1034F000810A31EE800A10BDF7EE000A9FED2D1A09
:1035000070EE600A9FED2A0A00EE801A9FED2A0AEB
:1035100060EEA01A00EE810A9FED281A00EE801AD4
:1035200021EE810A9FED261A00EE810AB5EE0B1AF4
:1035300000EE810A10BD4FF07F41B1EB400F03D286
:10354000BDE8104000F07CBBB0F1FF4F08BF10BDDC
:10355000B5EEC00AF1EE10FA06D2012000F09EFB93
:10356000BDE8104000F072BBB5EEC00AF1EE10FAF3
:1035700007D1022000F092FB00F058FBB1EE400AA8
:1035800010BDDFED100A6FF0160C20EE200A10EED1
:10359000100A63E7DE02323E3B3D943E903300006A
:1035A00000209A3E94330000FC849A36D95B5E3F3B
:1035B000924FA93D7279DEBD2D3E143ED85B5EBEB2
:1035C000157B4B3C0000004B10B510EE100A2DEDA2
:1035D000068BB7EE001A10EE901AB0EE418A002268
:1035E000A0F5000CDFEDFE9A4FF00073BCF1FE4F2A
:1035F0004FF07F4403EB410C80F0B481BCF1804F6D
:10360000C0F02082F74901449FEDF73AB1F5005F21
:1036100040F2D48200F58021CB0C03F00F0101EEC3
:10362000901AC3F307137F3BA0EBC350B8EEE12A17
:1036300000EE100A1A44DFEDED2AF0EE411A42EED8
:10364000221AF0EE613A70EE232A30EE632A12EE6F
:10365000900A00F500606FF30B0001EE900A73EE24
:10366000E13A33EE804AC1EE223A22EE230A10EE0E
:10367000100A00F500606FF30B0000EE100A00EE78
:10368000612A00EE442A62EE232A70EE221A21EE0D
:10369000A12ADFEDD73A02EE233A23EE023A20EEDA
:1036A000012A22EE811A03EE211A32EE010A10EEEF
:1036B000100A00F500606FF30B0000EE100A72EEC6
:1036C000401A31EE812A9FEDCB1A60EE011A9FED70
:1036D000CA1A20EE011A9FEDC90A02EE001A31EE55
:1036E000810A10EE100A00F500606FF30B0000EE87
:1036F000100AC34871EEC01A31EE812A784400EBFB
:10370000C10090ED003AD0ED011A100101EE100A4F
:10371000F8EEC12A32EE211A31EE001A31EE031A08
:1037200031EE221A11EE100A00F500606FF30B0063
:1037300009EE100A39EE621A31EE431A31EE400AF0
:1037400030EE610A32EE40AA10EE900A002100F538
:1037500000606FF30B0008EE900A084670EEE8AACE
:10376000FDF742F829EE280A00F00C01F0EEC00A3D
:1037700010EE900AB0F18B4F0DDD10EE900AB4EB15
:10378000400F08D310EE100A4FF08B4262F31E0078
:1037900008EE900A13E069EE2A0A38EEAA1A4AEEF9
:1037A000010A30EE201A11EE100A00F500606FF3E6
:1037B0000B0008EE900A30EE680A70EE209A0C209A
:1037C000FDF712F838EEA90AB5EEC00AF1EE10FACC
:1037D00034BFFEEE000AF6EE000A30EE800ABDEEBF
:1037E000C00A10EE100A011100EE101AF8EEC00A1D
:1037F00000EE100AB8EEC00A38EEC00A30EE290A10
:10380000DFED801A9FED801A00EE211ADFED7F1A9E
:103810007F4900F00F0040EE011A21EE800A794442
:1038200001EB800191ED001A7A49794401EB8001A6
:10383000D1ED001A784901EE801A794401EB80003D
:10384000764990ED000A31EE001AB0EEE00A10EE73
:10385000100A884215DA10EE100AB4EB400F10D3AC
:103860009FED6F0A30EE800ADFED6E0A20EE200A2F
:1038700068EE010ABDEC068BBCEEC00A20EE200A01
:1038800010BD10EE100A6849884243DA10EE100AA3
:10389000B4EB400F3ED3BDEEE00A68EE010A10EE35
:1038A000100A00EBD0725110C90501F17E5100EEF3
:1038B000101AA0EB6200C00560EE200A00F17E50F5
:1038C00000EE100A60EE808A18EE900AB4EB400F0A
:1038D0000FD1022000F0E2F900F0C0F910EE101A4A
:1038E00018EE100ABDEC068B61F31E0000EE100A04
:1038F00010BD18EE900A400011D018EE900AFFF7A4
:103900007FFD042808BF00F0B1F9B0EE680ABDECF5
:10391000068B10BDF5EEC00AF1EE10FA0FD20220B0
:1039200000F0BCF900F0A2F910EE101A18EE100A1F
:10393000BDEC068B61F31E0000EE100A10BD0220E4
:1039400000F0ACF900F08AF910EE101AB0EE480A57
:1039500010EE100ABDEC068B61F31E0000EE100A9B
:1039600010BD00BFBCF1804F6CD300BF00F1FF431E
:10397000B3F1FE4F24D200BFB0EEC00A10EE100A21
:10398000C1F3C7537F2B0DDB972BBFF63BAEC3F1C3
:1039900096034FF0010C0CFA03F3A3F1010C1CEA9F
:1039A000010F08D0012000F079F9BDEC068BBDE8CD
:1039B000104000F04BB90B4218BFBFEE008A21E661
:1039C00043001CBF4FF08073B3EB400F34D96FF04E
:1039D0001A02DFED161A20EE210A10EE100A27E077
:1039E00000000000001080C0ABAAAA3E0000803D8D
:1039F0007EE24C3E00B03842D49AB8BB3BAA384273
:103A000084310000FC596337C9FF753A1872313DA3
:103A10002231000056310000C63000000000FC4298
:103A20000000FE420000004B000040430000004D3B
:103A300010F0004FA0D1E5E5A0F50003B3F1FE4F73
:103A400021D2DFE503EB4103B3F1007F11D3F5EEA3
:103A5000C00AF1EE10FA05D1430018BFB4EB400FD5
:103A600076D883E701F0004141F0FC5100EE901A56
:103A70007CE7B3F1807F06D210EE903AA3F5000305
:103A800000EE903A72E720F000426FF0FF4C604C7D
:103A900002EB0C03A34210D321F000439C44A44545
:103AA0000BD3B0F17E5F18BF5FEA410C50D0B2F18A
:103AB000FF4F98BFB3F1FF4F05D9BDEC068BBDE8B2
:103AC000104000F0C0B8B0F1FF4F0FD0C1F3C752A3
:103AD0007F2A09DB972A11DAC2F19602012303FA41
:103AE00002F2531E0B4205D0002208E011F0004FF5
:103AF00055D128E00A4218BF012200D1022210F558
:103B0000000F13D028B3B0F1004F26D010F1814F31
:103B10004FD04FF0FE42B2EB400F94BF0120002087
:103B2000012202EBE171884239D10CE011F0004F23
:103B300002D0012A38D032E0012A02BF9FED350AB7
:103B4000BDEC068B10BD9FED340ABDEC068B10BD9D
:103B50002FE011F0004F0CD121E0B1F1FF4F1ED04A
:103B600011F5000F05D011F0004F15D00AB1012A50
:103B700008D0022000F092F8BDEC068BBDE81040A2
:103B800000F054B8022000F089F800F04FF8BDECC6
:103B9000068BB1EE400A10BD0AB1012A04D0B0EE86
:103BA000690ABDEC068B10BDBDEC068B9FED1B0AB0
:103BB00010BDBDEC068BB7EE000A10BD30EE410A19
:103BC000B5EE001A9FED172A00EE413AB6EE001A44
:103BD00060EE001A00EE431A61EEC11A9FED101A52
:103BE00020EE011A20EE020A9FED0F2A01EE820A52
:103BF00071EE001A11EE900A00F500606FF30B00F1
:103C000009EE100A31EE491A31EE00AA9CE50000D7
:103C1000FFFF3F00000080FF0000807F0000008069
:103C200000B0B841D49A38BB3BAAB841DFED030AD3
:103C3000B7EE001A81EE200A704700000000000075
:103C400030EE000A704730EE200A7047DFED020ABE
:103C500080EEA00A70470000000000009FED020AFD
:103C600020EE000A70470000000000709FED020A7D
:103C700020EE000A704700000000001002E008C8B3
:103C8000121F08C1002AFAD170477047002001E0D6
:103C900001C1121F002AFBD17047000001490860D2
:103CA00070470000600000202DE9FF5F82B0002116
:103CB000DDE90430020DDDF840B0034318D044F6CE
:103CC0001050A2F2FF3242431514119801281FD060
:103CD000A5EB0B00401C5FEA000A4FF000064E4FB8
:103CE000DFF83891B046504615D5CAF1000413E00C
:103CF000119801244AA3012801D16FEA0B0102980F
:103D0000119AC0E90031C0E9024206B0BDE8F09F57
:103D1000CBF10000DFE704460021404A491842EB9E
:103D20000450CDE9001012E0E00707D032463B46D0
:103D300040464946FCF751FB8046894632463B46A1
:103D400010461946FCF749FB06460F466410002C46
:103D5000EAD1DDE90401DDE90023BAF1000F06DA5A
:103D6000FCF73BFB42464B46FCF737FB05E0FCF714
:103D7000A6FB42464B46FCF7A2FB04460E46002239
:103D8000284BFCF72BFC03D84FF0FF30014607E02F
:103D90000022254B20463146FCF778FAFCF70CFD53
:103DA000102409E0002C0ADB0A220023FCF70AFA9F
:103DB000039B30321A55641E50EA0102F2D1641C92
:103DC000039AC4F111031444119A012A03D0012269
:103DD00008430DD10AE0084304D000204FF0110B36
:103DE000119072E7A3EB0B056D1E0DE05B4504DD42
:103DF0004FF0000205F1010504E003DA4FF0000284
:103E0000A5F10105002AECD002981199C0E9023110
:103E1000C0E9004579E70000000014400000F03FD1
:103E2000300000000000F0430000E03F2DE9FF4FAC
:103E300095B09A46884606460025EEE1252877D1BA
:103E400000242746F94A0121039400E0044316F8B0
:103E5000013F203B01FA03F01042F7D130782A28C5
:103E600011D06FF02F033078A0F13002092A16D854
:103E7000039A44F0020402EB820203EB4202104474
:103E8000761C0390EFE758F8042B0392002A03DA1C
:103E9000504244F40054039044F00204761C3078FD
:103EA0002E2816D116F8010F44F004042A280DD04C
:103EB0006FF02F023078A0F13003092B09D807EBFF
:103EC000870302EB4303C718761CF3E758F8047B1B
:103ED000761C30786C280FD006DC4C2817D0682868
:103EE0000DD06A2814D104E0742810D07A280FD19C
:103EF0000DE044F400140AE044F4801401E044F4BA
:103F000040147278824202D104F58014761C761C2B
:103F1000307866280BD013DC582877D009DC0028CD
:103F200075D04528F6D04628F4D047281AD193E119
:103F300018E0632835D0642879D0652812D18BE148
:103F4000702873D008DC6728F1D069286FD06E28FC
:103F50000DD06F2806D1ACE073282CD0752874D012
:103F6000782853D05246179990476D1C54E1C4F3FA
:103F70000250022809D003280DD0D8F800100428D8
:103F80000DD00D6008F1040846E1D8F80010EA17DA
:103F9000C1E90052F6E7D8F800100D80F2E70D7085
:103FA000F0E718F8041B8DF8001000208DF80100D0
:103FB000EB46012003E058F804BB4FF0FF306107E7
:103FC0004FF0000102D40DE009F101018946B94228
:103FD0000FDA8145F8DB1BF809100029F4D108E05D
:103FE00009F1010189468142FADB1BF80910002919
:103FF000F6D103985346A0EB090721463846179A95
:1040000000F080FA284400EB090507E044E008E1ED
:104010000DE01BF8010B524617999047B9F10109C1
:10402000F7D2534621463846179AF2E039E00A2182
:10403000C4F302524FF0000B0091022A06D058F848
:10404000040BC117032A09D00AE023E008F1070096
:1040500020F00702F2E80201904605E000B2C11725
:10406000042A01D140B2C117002906DA0A4600210C
:10407000404261EB02012D2202E0220504D52B22F1
:104080008DF80420012203E0E20701D02022F7E7A7
:10409000914657E00A2100E010214FF0000B0091FB
:1040A0000BE010214FF0000B44F0040408270091AE
:1040B00003E008204FF0000B0090C4F30252022AE4
:1040C00005D058F8040B0021032A08D008E008F1B5
:1040D000070020F00702F2E80201904603E080B2F8
:1040E000042A00D1C0B24FF0000922072AD5327845
:1040F000702A07D0DDF800C08CF0100C5CEA0B0CC5
:1041000005D00EE040228DF80420012208E050EA9C
:10411000010306D030238DF804308DF805200222EB
:104120009146009B83F0080353EA0B030AD150EA3F
:10413000010201D1620705D530228DF804204FF02D
:1041400001097F1E3278582A04D039A20C920CAA99
:1041500002920BE03BA2F9E75B46009AFCF732F8CB
:104160000C9B9B5C029A521E0292137050EA010251
:10417000F2D1029804A9081A00F1200B600702D5B9
:1041800024F4803400E001275F4502DDA7EB0B003B
:1041900000E0002000EB0B01009003984944401A16
:1041A0000390E00306D453462146179A039800F083
:1041B000A9F90544002706E001A85246C05D1799F9
:1041C00090476D1C7F1C4F45F6DBE0030CD5534632
:1041D0002146179A039800F095F9054404E0302031
:1041E0005246179990476D1C0099481E009000296F
:1041F000F5DC08E00298029952460078491C0291C9
:10420000179990476D1CBBF10001ABF1010BF1DC7C
:104210005BE100F065F90544761C307800287FF4F6
:104220000DAE19B02846BDE8F08F00000928010046
:10423000303132333435363738396162636465661C
:1042400000000000303132333435363738394142DE
:104250004344454600000000600700D4062708F1EB
:10426000070020F00700F0E80223804603F0004C2E
:104270005FEA0C0001D097A009E0200501D596A0C7
:1042800005E0E00701D095A001E0AFF24C001390EB
:10429000307823F0004365280CD006DC452809D08F
:1042A00046281DD047287FD13BE0662818D06728D4
:1042B0007AD136E00021112F01DB112000E0781CBB
:1042C000CDE9000104A90CA8FFF7EEFCDDE90D0122
:1042D0000C9A4FF0000B07F10109109200914EE08B
:1042E0004FF000400097CDE9011004A90CA8FFF79A
:1042F000DBFCDDE90D020C9B0F994FF0000B9146A2
:104300001093009211B9791C00EB0109B7EB090079
:1043100003D4C0F1FF3B07F10109A9EB07000190AD
:1043200042E0012F00DA01270021112F01DD1120C9
:1043300000E03846CDE9000104A90CA8FFF7B4FC61
:10434000DDE90D010C9A00914FF0000BB946109277
:1043500021070FD4009A4A4503DA914601E0A9F1FA
:104360000109B9F1010F05DD109AA9F10101515CB4
:104370003029F4D0B84202DA10F1040F03DA012137
:10438000CDE9011010E0002803DC8344A9EB000113
:1043900002E0411C494500DD8946A0EB0B00401CB2
:1043A00001904FF000400290200705D40198484545
:1043B00002DB4FF0FF30019000208DF84B00029897
:1043C0000DF14B07B0F1004F25D002200C902B20AF
:1043D0000D90029800280CDA404202902D200D909A
:1043E00007E00A210298FCF72DF93031029007F816
:1043F000011D0C99481E0C900029F2DC029800283F
:10440000EFD1791E0D980870307800F0200040F050
:10441000450007F8020D11A8C01BC01D029013989B
:10442000007800B1012000EB0901019801EBE07177
:10443000029801440398401A401E0390E00306D4FA
:1044400053462146179A039800F05CF805441398E8
:10445000007818B15246179990476D1CE00323D598
:1044600053462146179A039800F04CF805441BE088
:10447000BBF1000F07DB0098584504DD1098179931
:1044800010F80B0001E01799302052469047019830
:104490000BF1010B401E05F10105019004D12E2006
:1044A0005246179990476D1CB9F10001A9F1010915
:1044B000DEDC05E017F8010B5246179990476D1C9A
:1044C0000299481E02900029F4DC53462146179AAF
:1044D00003989EE62D0000002B0000002000000045
:1044E0002DE9F041044600251E461746880404D4F1
:1044F00005E039462020B0476D1C641EF9D52846DA
:10450000BDE8F0812DE9F041044600251E469046A5
:10451000C80301D5302700E02027880404D505E032
:1045200041463846B0476D1C641EF9D52846BDE8A3
:10453000F081000010B59FED7F2A4FF07E54F7EE1A
:10454000003A9FED7D1ADFED7D2AF5EEC00A7C4929
:10455000F1EE10FA3DDDC0EE201A0023F5EEC01A90
:10456000F1EE10FA02D20123F1EE611A11EE902A57
:10457000A24215DD83EEA10A5FF00102C2F1090437
:1045800001EB8404F0EE411AD4ED000A521C0A2A11
:10459000B0EE601A00EE211AF0DB32EEC10A12E032
:1045A0005FF00102C2F1090401EB8404F0EE410A5C
:1045B00094ED000A521C0A2AB0EE401A01EEA01A2D
:1045C000F0DB31EE020A0BB1B1EE400A80ED000AD9
:1045D000A3E0F5EEC00AF1EE10FA7DD29FED593A54
:1045E000B5EEC00AF1EE10FA3DDDC0EE201A002350
:1045F000F5EEC01AF1EE10FA02D20123F1EE611AC3
:1046000011EE902AA24215DD83EEA10A5FF00102AD
:10461000C2F1090401EB8404F0EE411AD4ED000A62
:10462000521C0A2AB0EE601A00EE211AF0DB32EEBC
:10463000C10A12E05FF00102C2F1090401EB840437
:10464000F0EE410A94ED000A521C0A2AB0EE401A1C
:1046500001EEA01AF0DB31EE020A0BB1B1EE400A16
:1046600030EE030AB2E7B5EEC00AF1EE10FA3ED220
:10467000C0EE201A0023F5EEC01AF1EE10FA02D2B5
:104680000123F1EE611A11EE902AA24214DD83EEAD
:10469000A10A0122C2F1090401EB8404F0EE411ADF
:1046A000D4ED000A521C0A2AB0EE601A00EE211A5C
:1046B000F0DB32EEC10A14E05FF00102C2F109043E
:1046C00001EB8404F0EE410A94ED000A521CB0EEB6
:1046D000401A01EEA01A00E013E00A2AEEDB31EEE8
:1046E000020A0BB1B1EE400A30EE430A6EE710EE5B
:1046F000101A002902DA9FED140A67E780ED003AEC
:104700000BE0F5EEC00AF1EE10FA10D1B5EEC00ADA
:10471000F1EE10FA03DDC0ED002A002010BDB5EE69
:10472000C00AF1EE10FA02D29FED080A4EE76FF0D0
:10473000030010BD00000000A59204BDDB0FC93FBF
:10474000D4670008DB0F4940DB0F49C0DB0FC9BF4E
:10475000F0B5002318E000BF02EB430532F8134028
:104760006D88A408AD0850F8246050F8257040F812
:10477000247040F8256000EB840400EB8505666832
:104780006F6867609B1C6E608B42E5D3F0BD2DE9BE
:10479000F0410588984617460C460646012A0CD17A
:1047A000201D002107E090ED000AB1EE400A80EDE7
:1047B000000A0830491CA942F5D3B5F5807F1BD00B
:1047C00008DC102D13D0202D16D0402D19D0802DAF
:1047D0001DD10CE0B5F5007F13D0B5F5806F06D084
:1047E000B5F5006F08D0B5F5805F10D109E021461E
:1047F000304600F032F80AE02146304600F0F1F889
:1048000005E0294601232046726800F03BFBB8F121
:10481000000F04D0B1892046B268FFF799FF012F3D
:1048200019D100EE105AB7EE001A0020F8EE400A37
:1048300081EE200A0DE0D4ED000A401C60EE800AF3
:10484000C4ED000AD4ED010A60EEC00AC4ED010A0D
:104850000834A842EFD3BDE8F0812DE9F0410546C8
:104860002DED028B8C4602886E6801EB82005408A5
:10487000804601EB840200EB8403A7087CD091ED15
:10488000003AD0ED002A91ED015A90ED014A33EE45
:10489000228AD1ED027A91ED031A90ED022AD0ED31
:1048A000033A92ED007AD2ED016AD2ED021AD2ED0E
:1048B000034AD3ED000A93ED010AD3ED025A93EDBA
:1048C000036A81ED008A35EE048A33EE623A75EEB2
:1048D000442A81ED018A37EE828A31EE635A37EE3F
:1048E000C24A81ED028A31EE238A37EE201A30EE79
:1048F000C72A81ED038A82ED001A36EE801A76EE21
:10490000643A82ED011A31EEA51A75EEE11A82EDD4
:10491000021A34EE861A82ED031A30EE661A96ED0C
:10492000000AD6ED010A63EE004A62EEA05A62EE7A
:10493000802A23EE203A74EEA54A72EEC32AC0ED17
:10494000004A22EE203AC0ED012A61EE002A61EE13
:10495000200A22EE000A33EE621A30EE800A83ED5E
:10496000001A83ED010A96ED020AD6ED030A24EE41
:10497000002A25EE201A00E023E065EE002A24EE4E
:10498000203A32EE011A23EE802A21EE800A80EDD1
:10499000021A32EEC31A1031103280ED031A21EEE2
:1049A000A01A63EEA00A1030103631EE421A30EE33
:1049B000800A83ED021A83ED030A10337F1E7FF411
:1049C0005EAF2146022360466A6800F05BFA6A68BF
:1049D0002146BDEC028B4046BDE8F041022300F0C9
:1049E00051BA2DE9F34F2DED048B87B00B98008859
:1049F0004FEA500801EB880000EB880303EB8804C2
:104A0000CDE90043DDF82CC0221F02EB8807CDE979
:104A100002014FEA5808DCF804A0CDF810804FF0EE
:104A20000408CDF818804FF00608CDF81480D1EDB9
:104A3000000A93ED000AD0ED013A94ED013A30EE10
:104A4000802A70EEC01AD1ED010A93ED010A061F0B
:104A50001D1F70EE802A30EEC01A33EEA10AD4ED8D
:104A6000000A71EEE31A0AF1080B70EE435A90ED5A
:104A7000000A71EE831A0AF1100931EE404A72EE13
:104A8000404A30EE011A30EE020A34EE204A34EE8B
:104A9000E05A31EE601A30EE200A72EEE34A0AF173
:104AA000180A81ED000A90ED010AD4ED010A74EEB6
:104AB000C34A30EE220A30EE200A81ED010AC0ED31
:104AC000005A80ED014A83ED005AC3ED014AC4ED5E
:104AD000001A84ED011ADDF810800830A8F10208F0
:104AE000083108334FEA580C0834D1ED000A93ED31
:104AF000000A5FEA0C0E70EE804A70EEC01AD1ED2B
:104B0000010A93ED010A7ED090ED015A30EE802A21
:104B100030EEC01A35EE210AD4ED013AD0ED000A8C
:104B200071EEC51A70EE635A71EE602A94ED000AB8
:104B300030EE811A71EEA31A32EE804A74EEE02A4A
:104B400070EEA40A31EE401A32EEC03A30EE800A1E
:104B500072EE452A81ED000A90ED010AD4ED010ABA
:104B600072EEE32A30EE020A30EE200A81ED010AED
:104B700056ED010A12ED010A15ED015A57ED017AC1
:104B800070EE808A30EEC02AD6ED000A92ED000A5F
:104B900095ED007A30EE808A30EEC00AD7ED000A3B
:104BA00070EE453A37EE609A73EEA76A78EEC53A32
:104BB00037EEC55A39EE026A39EE422A73EEE74AF9
:104BC00035EE405A37EE080A78EE473A30EE200AC2
:104BD00073EEE03A86ED000A15ED010A57ED010A81
:104BE00030EE280A30EE200A06ED010A9BED000A9D
:104BF000DBED010A0BF1080B25EE807A64EE207ADA
:104C000024EE008A00E074E025EEA04A77EE275AF1
:104C10000831083EC0ED005A38EE444A66EEA05A0C
:104C200066EE200A80ED014A26EE004A26EE800A52
:104C30000830AEF1010C35EEC44A30EE800A85ED45
:104C4000004A05ED010AD9ED000A99ED010ADDF8E7
:104C5000188023EE204A62EE805A62EEA02A23EEEC
:104C6000003A09EB880934EE254A083D72EEC32A62
:104C700083ED004A23EEE03AC3ED012A64EE802A78
:104C800064EEA00A23EE800A083373EE622A30EE47
:104C9000600AC2ED002A02ED010ADAED000A9AED7F
:104CA000010ADDF8148021EEA03A61EE002A61EEDF
:104CB000203A21EE801A083A73EE221A0AEB880A8B
:104CC00033EEC11AC4ED001A62EE201A84ED011A07
:104CD00025EE001A22EE000A65EE200A083431EEB5
:104CE000611A30EE200A87ED001A07ED010A083F2D
:104CF000FBE630EE805A90ED011A70EEC05A94ED4A
:104D0000012A31EE210AD0ED000A35EE414A31EE9A
:104D1000C11A70EE422A94ED000A35EEE03A74EEC4
:104D2000E03A70EEA51A70EEA40A33EE003A73EE84
:104D3000C03A71EEC01A30EE800A34EE424A31EECB
:104D4000021A81ED000A90ED010AD4ED010A30EE5D
:104D5000050A30EE200A81ED010A9BEC020A62EEA0
:104D6000804A23EE202A23EE000A62EEA00A34EEE7
:104D7000822A30EE600A80ED002A80ED010AD9ED2A
:104D8000000A99ED010A23EEA02A64EE002A64EEDF
:104D9000200A23EE800A32EE222A30EEC00A83ED8A
:104DA000002A83ED010A04239AEC020A21EE002A6C
:104DB00061EEA02A21EE800A61EE200A32EE221A6C
:104DC00030EE600A84ED001A84ED010A0B98426807
:104DD000DDE9030100F056F80B98042304994268BA
:104DE000029800F04FF80B98042304994268019848
:104DF00000F048F80B98049904234268009807B023
:104E0000BDEC048B02B0BDE8F04F00F03BB80000F1
:104E10009FED0F1A18E000BF90ED000AD0ED010AD7
:104E20000B4620EE000A091D083000EEA00AB5EE80
:104E3000C00AF1EE10FA04DBF1EEC00AC3ED000A7D
:104E400001E083ED001A521E002AE5D170470000F0
:104E50000000000030B50025B0EC010A4C1E0AE04D
:104E6000F0EC010AB4EEE00AF1EE10FA02D2B0EE74
:104E7000600A0D1B641E002CF2D182ED000A1D6039
:104E800030BD00002DE9FF4F2DED108B84B09FED5C
:104E9000FE0A15990291C90800235E18771807EBDE
:104EA000010E0EEB010404EB010C0CEB010808EB06
:104EB000010900EBC305CDF8009000EBC40495EDAB
:104EC000001AD4ED000A00EBC60B00EBCC0671EE25
:104ED000201A31EE604A9BED001AD6ED000A00EB75
:104EE000C70A00EBC80831EE202A71EE604ADDF8EF
:104EF0000090DAED000A98ED001A00EBCE0700EB07
:104F0000C90CD7ED003ADCED002A30EE813A30EEE4
:104F1000C11A73EEA20A33EEE25A71EEC32A31EEE1
:104F2000833A72EE601A72EE200A33EE202A73EE94
:104F3000600A85ED002AC4ED000A95ED013AD4ED32
:104F4000010ADBED013ADAED015A33EE202A33EEA5
:104F5000603AD6ED010AD7ED017A73EEA06A73EEDE
:104F6000E00AD8ED013A35EEA37A75EEE33ADCEDCE
:104F7000015A37EEA56A77EEE55A72EE477A32EEBD
:104F8000077A36EEC62A36EE866A77EE066A37EE7E
:104F9000466AC5ED016A84ED016A32EE826A32EE3C
:104FA000C22A8AED006A88ED002A37EEE12A77EE00
:104FB000A11A8AED012AC8ED011A74EEC51A21EE74
:104FC000802A74EE851A74EE424A61EE802A70EEF1
:104FD000E51A70EEA50A34EE022A61EE801A20EE80
:104FE000805A71EE620A31EE221A73EE612A73EE74
:104FF000211A33EEC53A73EE853A32EE234A32EE89
:10500000632A8BED004A8CED002A34EE832A86ED6C
:10501000002A34EEC32A87ED002A31EEC12A31EE90
:10502000811A8BED012A8CED011A32EEE01A72EE34
:10503000A00A86ED011AC7ED010A029C2344159CC3
:10504000A342FFF42AAF08297ED300230193012352
:105050000093179C019B234401939E004FEA430C4D
:10506000F5180CEB0307EC182344DDF8048002EB81
:10507000C30302EBC80802EBCC0C02EBC70702EB40
:10508000C60602EBC50502EBC40493ED009A93ED4E
:1050900001AAD8ED00DA9CED00DAD7ED00CA96ED52
:1050A00000CAD5ED00BA94ED00BAD8ED018A9CEDA6
:1050B000018AD7ED01AAD6ED017A95ED017AD4EDFA
:1050C000016A009B5D186E1806EB010CCDF80CC050
:1050D0008C440CEB010700EBC30400EBCC0A94ED0D
:1050E000001ADAED000A00EBC50E00EBC70B9EEDCF
:1050F000002ADBED001A71EE203A07EB010831EED1
:10510000601A72EE210A00EBC60500EBC80772EECA
:10511000611AD5ED002A97ED002ADDF80CC008EBE6
:10512000010972EE824A00EBCC0600EBC90832EEB0
:10513000C22A96ED003AD8ED002A33EE224A73EEE9
:10514000622A33EEE43A00E0F9E070EEC45A73EEFE
:10515000A43A70EE840A33EEA04A33EEE0EA84ED1E
:10516000004AD4ED013ADAED010A9EED014AD5ED8F
:10517000014A33EEA0FA73EEE03ADBED010AD6ED18
:1051800001EA98ED015A74EE209A34EE604AD7EDA8
:10519000010A34EEA06A74EEE04A7EEE850A3EEE25
:1051A000C55A7FEE46EA3FEE066A39EEE0FA79EE3E
:1051B000A09A73EE0F0A33EE4F3A36EE29FA76EEE6
:1051C000699A3EEEE56A84ED01FA7EEEA55A6CEE30
:1051D0000EEA27EEA9FA6CEE299A27EE8EEA7EEE09
:1051E0008FEA79EECE9ACAED00EA28EE06EACAED19
:1051F000019A6DEE209A2DEE066A68EE200A79EE8D
:105200008E9A76EE600AC5ED009A2BEE036A66EE82
:10521000A59AC5ED010A6BEE255A66EE830A36EEB5
:10522000293A75EEE00A87ED003A34EE053AC7ED0B
:10523000010A71EEE20A71EEA21A74EE452A23EE1B
:10524000004A60EE800A61EE801A62EE802A31EE3A
:10525000603A71EE200A32EE611A72EE211A33EED4
:10526000E22A73EEA22A74EEC43A74EE844A30EE57
:10527000A44A70EEE40A73EE234A33EE633A72EE08
:10528000E13A72EEA12A01E0F304353F72EE411AD1
:1052900032EE011A2DEE842A28EEA35A6DEEA33ABF
:1052A00028EE844A32EE052A8EED002A33EEC42A17
:1052B0006AEE223A69EE222A8EED012A29EE202A90
:1052C0006AEE200A32EE232A72EEE00A67EE242A02
:1052D00088ED002AC8ED010A6BEEA40A27EE212A08
:1052E0006BEEA11A70EE820A2AEE832ACBED000A39
:1052F00071EEE20A6AEE811A2CEE811ACBED010AF8
:105300006CEE830A70EEA10AC6ED000A71EE420A45
:10531000C6ED010A029C2344159CA342FFF4D2AEC1
:10532000009B5B1C00938B42FFF493AE179B4FF6E0
:10533000FF7404EAC303179307293FF6ABAD04B02B
:10534000BDEC108BBDE8FF8F13B505484FF6FF731A
:1053500001226946C069FDF776FB00981CBD00007C
:10536000000000202DED048B84B0FCF7FFF9FDF761
:10537000D3FCFDF7EDFB24480024016841F48001D3
:1053800001600068224600F480000090214646201B
:10539000FCF74CFA4620FCF73BFAFDF7A7FBFDF7BC
:1053A0001DFC1B48194901604FF4E131C0E90114AB
:1053B0000C21C460C0E904418461C461FDF7B6FA00
:1053C00008B172B6FEE7FDF76FFCA82060F3070591
:1053D0009FED109ADFED108A9FED108A0021104892
:1053E000FDF790F800210E48FCF77EFD084B0C49B4
:1053F0000DF1040C0095A3F1B402A1F148008CEC6E
:10540000038AFBF7CDFBFEE7303802400010014075
:105410002C460020CDCC4C3D9A99993E0000C842C4
:10542000C4440020000610160006101600000000FC
:105430000000000001020304060708090000000044
:10544000010203040000803F0000000011FB7F3FC9
:10545000900E493C43EC7F3FB00AC93C98D37F3F54
:105460002CC3163D0FB17F3F2FFB483DAB847F3FE0
:10547000742B7B3D6D4E7F3F05A9963D580E7F3FB7
:1054800080B6AF3D6DC47E3F36BDC83DB0707E3F37
:105490002EBCE13D24137E3F73B2FA3DCCAB7D3F81
:1054A00086CF093EAC3A7D3F8340163EC9BF7C3F64
:1054B000B6AB223E283B7C3FA2102F3ECDAC7B3FBB
:1054C000CF6E3B3EBE147B3FC2C5473E02737A3F60
:1054D0000115543E9DC7793F135C603E9812793F99
:1054E0007F9A6C3EF853783FCCCF783EC58B773FA0
:1054F000C07D823E07BA763F938E883EC6DE753FFA
:10550000229A8E3E0BFA743F31A0943EDD0B743F1D
:1055100086A09A3E4714733FE59AA03E5213723F0D
:10552000128FA63E0809713FD47CAC3E73F56F3FE5
:10553000EF63B23E9ED86E3F2A44B83E93B26D3FB1
:105540004A1DBE3E5E836C3F15EFC33E0C4B6B3F66
:1055500053B9C93EA7096A3FCA7BCF3E3CBF683FEB
:105560004136D53ED86B673F80E8DA3E880F663F0C
:105570004F92E03E59AA643F7533E63E5A3C633F82
:10558000BBCBEB3E98C5613FEA5AF13E2146603FF6
:10559000CBE0F63E05BE5E3F275DFC3E532D5D3FF2
:1055A000E4E7003F1A945B3F3D9C033F6AF2593F9A
:1055B000824B063F5348583F9BF5083FE595563FC1
:1055C0006B9A0B3F31DB543FDA390E3F4918533F9A
:1055D000CDD3103F3D4D513F2A68133F1F7A4F3FB7
:1055E000D9F6153F029F4D3FC07F183FF8BB4B3F98
:1055F000C6021B3F12D1493FD17F1D3F65DE473FA9
:10560000CBF61F3F03E4453F9967223F00E2433F4B
:1056100025D2243F70D8413F5636273F67C73F3FCA
:105620001594293FF9AE3D3F4AEB2B3F3B8F3B3F63
:10563000DE3B2E3F4268393FBB85303F233A373F40
:10564000C9C8323FF304353FF304353FC9C8323F80
:10565000233A373FBB85303F4268393FDE3B2E3F20
:105660003B8F3B3F4AEB2B3FF9AE3D3F1594293F23
:1056700067C73F3F5636273F70D8413F25D2243F6A
:1056800000E2433F9967223F03E4453FCBF61F3FCB
:1056900065DE473FD17F1D3F12D1493FC6021B3F08
:1056A000F8BB4B3FC07F183F029F4D3FD9F6153FD7
:1056B0001F7A4F3F2A68133F3D4D513FCDD3103FD6
:1056C0004918533FDA390E3F31DB543F6B9A0B3F99
:1056D000E595563F9BF5083F5348583F824B063FA0
:1056E0006AF2593F3D9C033F1A945B3FE4E7003F59
:1056F000532D5D3F275DFC3E05BE5E3FCBE0F63E91
:105700002146603FEA5AF13E98C5613FBBCBEB3E74
:105710005A3C633F7533E63E59AA643F4F92E03EE0
:10572000880F663F80E8DA3ED86B673F4136D53E4A
:105730003CBF683FCA7BCF3EA7096A3F53B9C93E09
:105740000C4B6B3F15EFC33E5E836C3F4A1DBE3E64
:1057500093B26D3F2A44B83E9ED86E3FEF63B23E8F
:1057600073F56F3FD47CAC3E0809713F128FA63EA3
:105770005213723FE59AA03E4714733F86A09A3EAB
:10578000DD0B743F31A0943E0BFA743F229A8E3E9B
:10579000C6DE753F938E883E07BA763FC07D823E57
:1057A000C58B773FCCCF783EF853783F7F9A6C3EDD
:1057B0009812793F135C603E9DC7793F0115543EB6
:1057C00002737A3FC2C5473EBE147B3FCF6E3B3E5D
:1057D000CDAC7B3FA2102F3E283B7C3FB6AB223E98
:1057E000C9BF7C3F8340163EAC3A7D3F86CF093E21
:1057F000CCAB7D3F73B2FA3D24137E3F2EBCE13D1E
:10580000B0707E3F36BDC83D6DC47E3F80B6AF3DB3
:10581000580E7F3F05A9963D6D4E7F3F742B7B3D13
:10582000AB847F3F2FFB483D0FB17F3F2CC3163D1C
:1058300098D37F3FB00AC93C43EC7F3F900E493C70
:1058400011FB7F3F000000000000803F900E49BC2C
:1058500011FB7F3FB00AC9BC43EC7F3F2CC316BD90
:1058600098D37F3F2FFB48BD0FB17F3F742B7BBD8B
:10587000AB847F3F05A996BD6D4E7F3F80B6AFBD1F
:10588000580E7F3F36BDC8BD6DC47E3F2EBCE1BD06
:10589000B0707E3F73B2FABD24137E3F86CF09BE3F
:1058A000CCAB7D3F834016BEAC3A7D3FB6AB22BE4B
:1058B000C9BF7C3FA2102FBE283B7C3FCF6E3BBEB2
:1058C000CDAC7B3FC2C547BEBE147B3F011554BE65
:1058D00002737A3F135C60BE9DC7793F7F9A6CBEAE
:1058E0009812793FCCCF78BEF853783FC07D82BE06
:1058F000C58B773F938E88BE07BA763F229A8EBEBD
:10590000C6DE753F31A094BE0BFA743F86A09ABEE6
:10591000DD0B743FE59AA0BE4714733F128FA6BEFD
:105920005213723FD47CACBE0809713FEF63B2BE24
:1059300073F56F3F2A44B8BE9ED86E3F4A1DBEBE67
:1059400093B26D3F15EFC3BE5E836C3F53B9C9BEC2
:105950000C4B6B3FCA7BCFBEA7096A3F4136D5BE11
:105960003CBF683F80E8DABED86B673F4F92E0BE2D
:10597000880F663F7533E6BE59AA643FBBCBEBBECA
:105980005A3C633FEA5AF1BE98C5613FCBE0F6BE90
:105990002146603F275DFCBE05BE5E3FE4E700BFD9
:1059A000532D5D3F3D9C03BF1A945B3F824B06BF66
:1059B0006AF2593F9BF508BF5348583F6B9A0BBF9B
:1059C000E595563FDA390EBF31DB543FCDD310BFDA
:1059D0004918533F2A6813BF3D4D513FD9F615BFB3
:1059E0001F7A4F3FC07F18BF029F4D3FC6021BBFAB
:1059F000F8BB4B3FD17F1DBF12D1493FCBF61FBF34
:105A000065DE473F996722BF03E4453F25D224BFA7
:105A100000E2433F563627BF70D8413F159429BF57
:105A200067C73F3F4AEB2BBFF9AE3D3FDE3B2EBF82
:105A30003B8F3B3FBB8530BF4268393FC9C832BF4F
:105A4000233A373FF30435BFF304353F233A37BFDA
:105A5000C9C8323F426839BFBB85303F3B8F3BBF2F
:105A6000DE3B2E3FF9AE3DBF4AEB2B3F67C73FBF42
:105A70001594293F70D841BF5636273F00E243BFF7
:105A800025D2243F03E445BF9967223F65DE47BF27
:105A9000CBF61F3F12D149BFD17F1D3FF8BB4BBF93
:105AA000C6021B3F029F4DBFC07F183F1F7A4FBFEA
:105AB000D9F6153F3D4D51BF2A68133F491853BFD2
:105AC000CDD3103F31DB54BFDA390E3FE59556BFD9
:105AD0006B9A0B3F534858BF9BF5083F6AF259BF7A
